:020000040000FA
:10200000380300106D2100007121000073210000D1
:1020100075210000772100007921000000000000F8
:102020000000000000000000000000007B21000014
:102030007D210000000000007F21000081210000C0
:102040008321000083210000832100008321000000
:10205000832100004532000083210000832100001D
:1020600083210000832100008321000083210000E0
:1020700083210000832100008321000083210000D0
:1020800083210000832100004931000067310000F6
:1020900085310000A531000083210000832100006C
:1020A00083210000832100008321000083210000A0
:1020B000832100001D2200008321000083210000F5
:1020C00083210000832100008321000000F002F83A
:1020D00000F03CF80AA090E8000C82448344AAF186
:1020E0000107DA4501D100F031F8AFF2090EBAE884
:1020F0000F0013F0010F18BFFB1A43F0010318473C
:10210000F821000018220000103A24BF78C878C1D6
:10211000FAD8520724BF30C830C144BF04680C60ED
:10212000704700000023002400250026103A28BF35
:1021300078C1FBD8520728BF30C148BF0B60704739
:102140001FB502F056F81FBD10B510BD01F0C5FC5B
:102150001146FFF7F5FF00F0B4FA01F0E3FC03B419
:10216000FFF7F2FF03BC01F0EDFC00000848004758
:10217000FEE7FEE7FEE7FEE7FEE7FEE7FEE7FEE737
:10218000FEE7FEE703480449024A044B704700009B
:10219000CD20000038010010380300103801001075
:1021A000FA48006840F04000F949C1F8C400F94815
:1021B000006940F2555140EA0100F64908610846BD
:1021C000006D40F6AA2140EA0100F24908654FF08F
:1021D0000200F14948604FF0FF0008604FF06100D5
:1021E000C8604FF0020048614FF4807088614FF082
:1021F0000000C861086248620864486488644FF45B
:10220000FC40C8644FF0090048607047E2494864E8
:10221000096D41F02001E04A116570472DE9F04752
:10222000DE48007A40F00100DC490872DC48807822
:10223000DC490860DA48C078DB490860D848007992
:10224000DA490860D6484079D9490860D449887984
:1022500001F00AFE06460022D64B01F0ADFC044612
:1022600001F078FCD4490860CD49C87901F0FCFD43
:1022700006460022CF4B01F09FFC044601F06AFCA9
:10228000CE490860C649087A01F0EEFD04460022F6
:10229000C84B01F091FC064601F05CFCC84908609F
:1022A000C848006842F2107191FBF0F0C64908601E
:1022B000C648006842F2107191FBF0F0C449086012
:1022C000C448006842F2107191FBF0F0C249086006
:1022D000C248006842F2107191FBF0F0C0490860FA
:1022E000B0480068B8490968401ABE490860AE485D
:1022F0000068B7490968401ABB490860AB480068E4
:10230000B5490968401AB9490860A9480068B44944
:102310000968401AB6490860B6480068B1490968BA
:102320000844B4490860B4480068AF4909680844E3
:10233000B1490860B1480068AC4909680844AF4930
:102340000860AF480068AA4909680844AC490860B9
:10235000A4480068AB490968401AAB490860A24824
:102360000068AA490968401AA94908609F4800689E
:10237000A8490968401AA84908609D480068A7490B
:102380000968401AA6490860964800689D49086097
:10239000954800689D490860944800689D49086018
:1023A000934800689D4908607E48006830B9002065
:1023B0008C4908608F490860934908607A48006832
:1023C00030B90020884908608B490860904908604E
:1023D0007648006830B90020844908608749086061
:1023E0008D4908607248006830B900208049086053
:1023F000834908608A4908608348006801F01AFE32
:1024000007466F480168384601F02CFE05467948BA
:10241000006801F00FFE814668480168484601F0F7
:1024200021FE07466F48006801F004FE81466248BD
:102430000168484601F016FE8046394601F07CFDF1
:102440000646294601F078FD044601F0D7FD75499E
:1024500008606F48006801F0EDFD074658480168C4
:10246000384601F0FFFD05466348006801F0E2FDD3
:10247000814652480168484601F0F4FD07465A4833
:10248000006801F0D7FD81464B480168484601F0DD
:10249000E9FD8046394601F04FFD0646294601F028
:1024A0004BFD044601F0AAFD5F4908605A480068E8
:1024B00001F0C0FD074642480168384601F0D2FDF0
:1024C00005464E48006801F0B5FD81463B4801686D
:1024D000484601F0C7FD07464448006801F0AAFDE0
:1024E000814635480168484601F0BCFD80463946C2
:1024F00001F022FD0646294601F01EFD044601F0CA
:102500007DFD4A4908604648006801F093FD074692
:102510002B480168384601F0A5FD0646384800689A
:1025200001F088FD814625480168484601F09AFD82
:1025300007462F48006801F07DFD81461E4801686E
:10254000484601F08FFD8046394601F0F5FC04460F
:10255000314601F0F1FC054601F050FD34490860B8
:102560000F48407810F0800F03D1012031490870E6
:1025700002E000202F4908700948407810F0400F11
:102580005CD101202C4908705BE00000C4C00F4002
:1025900000C00F4000C002400080014000000B401E
:1025A000CC0000102C00001050000010740000102F
:1025B0009800001000005940080000100C000010A6
:1025C0001000001028000010300000104C00001017
:1025D00054000010700000107800001094000010EB
:1025E0009C00001034000010580000107C00001007
:1025F000A0000010380000105C00001080000010E7
:10260000A4000010400000103C0000106400001006
:10261000600000108800001084000010AC00001062
:10262000A800001044000010680000108C0000108A
:10263000B0000010180000101A0000100020FB4924
:102640000870FB48407810F0200F03D10120F949B1
:10265000087002E00020F7490870F548407810F053
:10266000100F03D10120F449087002E00020F24964
:102670000870F2480068F24909680844F1490860A6
:10268000F1480068F14909680844F1490860F148D7
:102690000068F14909680844F0490860F04800689A
:1026A000F04909680844F04908600020FFF7AEFDD2
:1026B000BDE8F087002001E0411CC8B20A28FBDB1E
:1026C000704701F0BDF800F0B3FE00F018FE01F015
:1026D000A7F900F0BFFF0A2000F08CFF01F05CF9C1
:1026E000E248806D40F40070E049886500F0E3FF47
:1026F00000F0E8FF00F0ECFF00F0F0FF4FF6FF7095
:10270000DB490860DB490860DB490860DB49086099
:10271000FEE30020FFF77AFDCA480068D849086246
:10272000CB4800684862CD4800688864CE4800689D
:10273000C8610846006D40F0040008650846006D59
:1027400040F0080008650846006D40F0400008654C
:102750000846006D40F002000865C4484069C0F3B7
:102760000020C2494969022202EA91110844BF4986
:102770004969042202EA51410844C2490870BB4831
:102780004069C0F38050B9494969022202EA1151F7
:102790000844B6494969042202EA91410844BA4909
:1027A0000870B2484069C0F3C060B049496902226C
:1027B00002EAD1610844AD494969042202EA515153
:1027C0000844B2490870A9484069C0F38060A7492D
:1027D0004969022202EAD1510844A4494969042204
:1027E00002EAD1510844AA490870AA480078F0BB0F
:1027F000A4480078032810D120209C49C8611020EB
:10280000C8618020C8658000C861FFF753FF402081
:102810009649886580008865EDE09A48007801282F
:1028200010D120209149C8618020C8658000C8610E
:102830004020C865FFF73EFF10208C4988610001E9
:102840008865D8E08F480078052811D12020874975
:10285000C8614020C8658000C8658020C865FFF752
:1028600029FF10208149886140018861C3E03FE071
:1028700084480078042811D120207C49C8611020A8
:10288000C8614020C8658000C865FFF713FF4FF49A
:1028900000707649886180208865ACE079480078CE
:1028A000062810D110207149C8614001C86140203C
:1028B000C8658000C865FFF7FDFE20206B49886170
:1028C0008020886597E06F48007802280FD110209B
:1028D0006649C8614001C8614010C8658020C8656C
:1028E000FFF7E8FE2020614988614020886582E08A
:1028F0006848007801287ED162480078042810D109
:1029000020205A49C8611020C8614001C861802058
:10291000C865FFF7CFFE4020544988658000886570
:1029200069E058480078062811D120204F49C86135
:102930008020C8658000C8614020C865FFF7BAFEE6
:102940004FF48070494988651020886153E04D48F4
:102950000078022810D120204449C8614020C86571
:102960008000C8658020C865FFF7A4FE10203F499D
:102970008861400188613EE042480078032811D117
:1029800020203A49C8611020C8614020C8658000F5
:10299000C865FFF78FFE4FF40070344988618020CE
:1029A000886528E037480078012810D110202F4989
:1029B000C8614001C8614020C8658000C865FFF754
:1029C00079FE2020294988618020886513E02D4800
:1029D000007805280FD110202449C8614001C86142
:1029E0004010C8658020C865FFF764FE20201F499D
:1029F0008861402088650D480078B0B92248007889
:102A0000032849D14FF080501849C8634010C8636B
:102A10008010C8638010C863FFF74CFE4FF08060E1
:102A200012498863801088632CE1A5E01A00001029
:102A3000CC0000101C0000101E0000102C00001024
:102A40004400001048000010500000106800001002
:102A50006C000010740000108C000010900000103A
:102A600098000010B0000010B400001000C0092051
:102A7000280000104C00001070000010940000109E
:102A800000800140B8000010BB000010BE00001024
:102A9000C100001018000010F8480078012811D17A
:102AA0000007F749C863C010C8634000C863C0107E
:102AB000C863FFF7FFFD4FF08070F1498863C000E5
:102AC0008863DFE0ED480078052812D14FF0805090
:102AD000EB49C8638010C8638010C8634010C863A6
:102AE000FFF7E8FD4FF00060E549886380108863D8
:102AF000C8E0E2480078042811D18006E049C863A4
:102B00004010C8634010C8638010C863FFF7D2FD4F
:102B10004FF00070DA49886380108863B2E0D748CC
:102B20000078062812D14FF00060D549C8638010A4
:102B3000C8634000C8638010C863FFF7BBFD4FF057
:102B40008050CF498863401188639BE0CB48007870
:102B5000022810D18006CA49C8638010C86340109B
:102B6000C8634010C863FFF7A5FD4FF08050C4490B
:102B700088638010886385E0C0480078042811D1FC
:102B80008006BF49C8634010C8638010C8638010C6
:102B9000C863FFF78FFD4FF08060B94988638010EC
:102BA00088636FE0B5480078062812D14FF0805056
:102BB000B349C863C010C8634000C863C010C8638D
:102BC000FFF778FD4FF00060AD498863C01088635F
:102BD00058E0AA480078022811D1C006A849C86365
:102BE0008010C8638010C8634010C863FFF762FD9F
:102BF0004FF00060A24988638010886342E09F48DC
:102C00000078032812D14FF080509D49C8634010CE
:102C1000C8634010C8638010C863FFF74BFD4FF0D6
:102C2000007097498863801088632BE09348007890
:102C3000012811D1C0069249C8638010C8634000C2
:102C4000C8638010C863FFF735FD4FF080508C4992
:102C500088634011886315E088480078052811D101
:102C60004FF000608649C8638010C8634010C86395
:102C70004010C863FFF71EFD4FF0806080498863F5
:102C8000800088637F480078E8BB7F48007803288D
:102C900012D14FF400107A49C8634010C863801005
:102CA000C8630002C867FFF705FD4FF400207449B0
:102CB000886380018867FFE073480078012811D19C
:102CC00040056F49C863C010C8634000C863C001B5
:102CD000C867FFF7EFFC4FF4801069498863400133
:102CE0008867E9E068480078052814D14FF400109F
:102CF0006349C8638010C8638001C8674000C86723
:102D0000FFF7D8FC00E049E04FF480105C4988638D
:102D100080108863D0E05C480078042811D1C0049A
:102D20005749C8634010C8634010C8638001C86732
:102D3000FFF7C0FC4FF0806051498867001288633C
:102D4000BAE051480078062812D14FF480104C495F
:102D5000C8638010C8634000C8638001C867FFF77C
:102D6000A9FC4FF400104649886340018867A3E03E
:102D700045480078022810D1C0044149C86380103A
:102D8000C863C001C8674000C867FFF793FC4FF4F1
:102D900000103B498863801088638DE03A480078D2
:102DA000042811D1C0043649C8634010C86380109C
:102DB000C8630002C867FFF77DFC4FF4002030496C
:102DC00088638001886777E02F480078062812D151
:102DD0004FF400102A49C863C010C8634000C8639C
:102DE000C001C867FFF766FC4FF000702449886790
:102DF0004011886360E024480078022811D1000562
:102E00001F49C8638010C8638001C8674000C86755
:102E1000FFF750FC4FF480101949886380108863D5
:102E20004AE019480078032812D14FF400101449E1
:102E3000C8634010C8634010C8638001C867FFF7CB
:102E400039FC4FF080600E4988670012886333E0D8
:102E50000D480078012819D100050949C863801080
:102E6000C8634000C8638001C867FFF723FC4FF0C8
:102E7000806003498867401188631DE0BB00001033
:102E800000C009201C000010BE000010FF480078A0
:102E9000052811D14FF48010FD49C8634001C8676F
:102EA0004000C8670012C863FFF704FC4FF400201D
:102EB000F749886380008863F648007848BBF64885
:102EC0000078032811D10220F149C8630120C863AA
:102ED0004002C8631020C863FFF7ECFB4FF480701A
:102EE000EB49886380008863ECE0EB4800780128B8
:102EF00013D10220E649C8630002C8631020C863EA
:102F00000001C863FFF7D6FB0120E149886301E0B7
:102F100010E158E080028863D4E0DF48007805289B
:102F200010D10220DA49C863C001C8638000C863B9
:102F30004010C863FFF7BEFB0120D549886310200D
:102F40008863BFE0D4480078042811D10220D0491A
:102F5000C8630120C8630002C8638000C863FFF72C
:102F6000A9FB4FF40070CA49886310208863A9E068
:102F7000C9480078062811D10120C549C86310202E
:102F8000C8630001C8638000C863FFF793FB4FF478
:102F90000070BF4988630220886393E0BE480078D0
:102FA00002280FD10120BA49C8631020C8638001EC
:102FB000C8634010C863FFF77DFB0220B4498863F3
:102FC000C00188637EE0B4480078042811D1022053
:102FD000AF49C8630120C8631020C8634001C863BB
:102FE000FFF768FB4FF48060A9498863801088630D
:102FF00068E0A9480078062811D10220A449C863D6
:103000001020C8630001C8634000C863FFF752FB8B
:103010004FF480609E4988630120886352E09E4897
:10302000007802280FD19A49C863C001C8638000A4
:10303000C8634010C863FFF73DFB012094498863D3
:10304000102088633EE094480078032811D10220C4
:103050008F49C8630120C8630002C8638000C86349
:10306000FFF728FB4FF400708949886310208863BC
:1030700028E089480078012810D18549C8631020CC
:10308000C8630001C8638000C863FFF713FB4FF4F7
:1030900000707F4988630220886313E07E480078CF
:1030A00005280FD101207A49C8631020C863800128
:1030B000C8634010C863FFF7FDFA022074498863B3
:1030C000C001886372484069C0F3002038B9734872
:1030D000006840F080506E49C1F89C0006E07048DE
:1030E000006840F080506A49C1F89800684840691B
:1030F000C0F3C01038B96948006840F00050644916
:10310000C1F89C0006E06648006840F00050604945
:10311000C1F898005E484069C0F3C04030B95C48CF
:10312000C06B40F400305A49C86303E04FF40030EC
:1031300057498863FFF7EDBA5A490864096D41F0B1
:103140001001584A1165704710B55748006840F0A3
:1031500001005649C1F8400155488068554908604A
:1031600000F0B6FA10BD10B54F48006840F00200FC
:103170004E49C1F84001504880685049086000F04D
:10318000A1FA10BD10B54848006840F00400474956
:10319000C1F840014FF0402080684949086000F0C4
:1031A0008AFA10BD10B54048006840F008003F4959
:1031B000C1F84001434880684349086000F08EFA36
:1031C00010BD10B53B48006844F6382191FBF0F083
:1031D0003E4908603948006844F6382191FBF0F018
:1031E0003B4908603848006844F6382191FBF0F00C
:1031F000384908603248006844F6382191FBF0F005
:10320000354908602A2000F059F93048006800F07C
:1032100055F92B2000F052F92D48006800F04EF9C6
:103220002B2000F04BF92B48006800F047F92B20C9
:1032300000F044F92848006800F040F9232000F02D
:103240003DF910BD10B500F044F904460020FFF729
:1032500073FF262C08D12620204908700020204921
:103260000860C820FFF768FF1D480068002803DDDC
:103270001A491B4A12688C5419480068401C1849A6
:10328000086008460068092831DB2BE0BE0000100A
:1032900000C009201E000010C10000109CC00920C1
:1032A00098C009200080014040C10F4000C00F407D
:1032B0000000094028000010008000404C00001071
:1032C0009400001000400940700000103000001011
:1032D00054000010780000109C000010CC0000107A
:1032E0000400001000200860C820FFF725FF10BD73
:1032F0004FF4FC402549C86409204860704700B578
:103300002348006840F040002249C1F8C400224828
:10331000006940F2555140EA01001F490861084622
:10332000006D40F6AA2140EA01001B4908654FF0F4
:103330000200164948604FF0FF0008604FF061003E
:10334000C8604FF0020048614FF4807088614FF010
:103350000000C86108624862086448648864FFF736
:10336000C7FF00BD0949C86141000322B1FBF2F16A
:10337000064A1162410851620321B0FBF1F1116468
:103380001146486488647F211165704700800140C0
:10339000C4C00F4000C00F4000C002408F49096800
:1033A00041F002018D4A11601146096841F008019F
:1033B00011608B49096841F000718A4AC2F8C41053
:1033C0004FF08301884A11734FF064004FF085017C
:1033D000864A117001464FEAE07200EB12624FEA32
:1033E0002222814B1A714FEAE07200EB12624FEA1F
:1033F0002222A0EB02221A704FF003011A46117329
:103400004FF0060111727047014600BF7648007DFB
:1034100010F0200FFAD0C8B2734A1070704700BF86
:103420007148007D10F0010FFAD06F4800787047A6
:103430006A49096841F01001684A1160114609683B
:1034400041F0400111606649096841F00801654A90
:10345000C2F8C4104FF08301654A11734FF0290080
:1034600001464FEAE07200EB12624FEA2222604B03
:103470001A714FEAE07200EB12624FEA2222A0EBCF
:1034800002221A704FF003011A4611734FF0060121
:10349000117200BF4FF005014FF0010202FA01F274
:1034A0004FEA51114FF0E02303EB8101C1F80021F5
:1034B00000BF4FF001014E4A51607047014600BF06
:1034C0004B48007D10F0200FFAD0C8B2484A107067
:1034D000704700BF4648007D10F0010FFAD0444805
:1034E000007870471CB503460A2093FBF0F100FBFF
:1034F0001130303080B2ADF806000A2093FBF0F0B6
:103500000A2190FBF1F201FB1200303080B2ADF8DD
:1035100004000A2093FBF0F090FBF1F090FBF1F235
:1035200001FB1200303080B2ADF802000A2093FB9C
:10353000F0F090FBF1F090FBF1F090FBF1F201FB69
:103540001200303080B2ADF80000002405E03DF8F4
:103550001400FFF759FF601CC4B2042CF7DB1CBD3C
:103560001CB503460A2093FBF0F100FB113030300C
:1035700080B2ADF806000A2093FBF0F00A2190FB20
:10358000F1F201FB1200303080B2ADF804000A20E5
:1035900093FBF0F090FBF1F090FBF1F201FB1200D5
:1035A000303080B2ADF802000A2093FBF0F090FBBF
:1035B000F1F090FBF1F090FBF1F201FB12003030E2
:1035C00080B2ADF80000002405E03DF81400FFF7DC
:1035D00075FF601CC4B2042CF7DB1CBD00C00240A8
:1035E000C4C00F4000C00F4000C0094028C00940BF
:1035F00000C000401349096841F48031124AC2F802
:10360000C4101249097A41F00B01104A1172114697
:10361000097A21F0040111724FF0000151600C4948
:10362000116000BF4FF01D014FF0010202FA01F2DC
:103630004FEA51114FF0E02303EB8101C1F8002163
:1036400000BF7047C4C00F4000C00F4000000B40D7
:1036500040420F0024480068244940EA0100244900
:10366000C1F8C4004FF003004FF0402148604FF014
:10367000010048604FF003001E4948604FF0010010
:1036800048604FF003001C4948604FF0010048605B
:103690004FF00300194948604FF0010048604FF4B3
:1036A00080704FF04021C8601249C8601249C8605C
:1036B0001249C860704703204FF040214860012044
:1036C0004860704703200B494860012048607047FC
:1036D00003200949486001204860704703200749DA
:1036E0004860012048607047C4C00F400600C00019
:1036F00000C00F4000800040000009400040094029
:1037000091480068C0F30160032868D18F480068C1
:1037100010F0030006D0012823D002283FD0032850
:103720005CD100E000BF88480068C0F30E0000F1E3
:1037300001004FEA4000864900FB01F08549D1F8BD
:103740008810C1F3074101F10101B0FBF1F182489A
:103750000068C0B200F10100B1FBF0F07F490860E1
:103760003CE079480068C0F30E0000F101004FEA28
:1037700040007B4900FB01F07649D1F88810C1F385
:10378000074101F10101B0FBF1F173480068C0B2DB
:1037900000F10100B1FBF0F0704908601EE06A48DA
:1037A0000068C0F30E0000F101004FEA40004FF442
:1037B000FA4100FB01F06749D1F88810C1F30741D5
:1037C00001F10101B0FBF1F163480068C0B200F102
:1037D0000100B1FBF0F06149086000BF2FE05B48D9
:1037E000006810F0030006D0012810D0022819D07C
:1037F000032823D100E000BF57480068C0B200F1A1
:1038000001005349B1FBF0F05449086016E05248FA
:103810000068C0B200F101005149B1FBF0F04F491E
:1038200008600BE04C480068C0B200F101004FF4A2
:10383000FA41B1FBF0F04949086000BF00BF704792
:1038400020204849086000BF4648006810F0400F3B
:10385000FAD00320404908604FF001003D49C1F80B
:103860000C014148414908604FF0AA0040490860F6
:103870004FF0550008604FF001003E4908604FF0DE
:10388000AA003B4908604FF055003249C1F88C004E
:1038900000BF2D48006810F0806FFAD00320354932
:1038A00008604FF0AA002B49C1F88C004FF055007A
:1038B0002F49086000BF2448006810F0407FFAD00C
:1038C00023202D4908604FF0AA002249C1F8AC001E
:1038D0004FF05500294908604FF001002849086061
:1038E0004FF0AA00254908604FF055001949C1F86A
:1038F000AC0000BF2348006810F4806FFAD00320AA
:103900001F4908604FF0AA001249C1F8AC004FF0FF
:1039100055001A49086000BF1A48006810F4407F3B
:10392000FAD00020184908600A49C1F8AC011748CC
:10393000174908604FF000001649086043F23A004A
:10394000044908607047000088C00F400CC10F4058
:1039500000093D0000C00F4004C10F40C800001026
:10396000001BB700A0C10F406300050084C00F40DA
:103970008CC00F4080C00F40A4C00F40ACC00F40AF
:10398000A0C00F40A8C00F40A8C10F40DE87280488
:10399000C4C00F40C8C10F4010B51E48006940F0B8
:1039A000AA601C4908611C48006840F00F001B49D0
:1039B000C1F848010846D0F84C0140F00F00C1F8AA
:1039C0004C014FF0120000F019F8132000F016F827
:1039D000142000F013F8152000F010F80F48D0F86C
:1039E000480140F00F000D49C1F848010846D0F8E1
:1039F0004C0140F00F00C1F84C0110BD00F01F0257
:103A00000121914042094FF0E02303EB8202C2F80A
:103A10000011704700C0024048C10F4000C00F4075
:103A20002948006840F040502849C1F88000084605
:103A3000006A40F4003008620846006A20F0015035
:103A400008620846006A20F4E03008620846006810
:103A50001F4900EA01001D4908600846006840F45B
:103A60000C7008600846006C40F4E070086408467A
:103A7000006C40F4007008640846006820F4E00020
:103A800008600846006A40F0FC500862084600687A
:103A900020F0C45008600846006A40F470100862C4
:103AA0000846006E40F0C06008660846006820F0D6
:103AB000E06008600846006A40F2137140EA0100C5
:103AC000024908627047000080C0092000C0092038
:103AD0007FFEF7FF704770477047754600F028F883
:103AE000AE4605006946534620F00700854618B0EB
:103AF00020B5FEF747FBBDE820404FF000064FF031
:103B000000074FF000084FF0000B21F00701AC4612
:103B1000ACE8C009ACE8C009ACE8C009ACE8C00931
:103B20008D4670470446AFF300802046FEF717FB32
:103B300000487047D800001001487047704700BF28
:103B4000DC00001001491820ABBEFEE72600020091
:103B50007047000021F00042A2F16052B2F5801FD0
:103B600001F0004328BFD2F17F6C0BD95FEA001C43
:103B700043EAC20242EB507018BF704728BF20F0E2
:103B800001007047B2F5801FBCBF184670474FEA6E
:103B9000410C1CF5001F02D2084600F031BB70B585
:103BA00000F075F900000089FFF7F6BF4FF0004004
:103BB000A0F58000704700002DE9C04130B4DFF867
:103BC000A0C23CEA111418BF3CEA131400F0EC80C8
:103BD00081EA03051CEA111444EAD57418BF1CEAF3
:103BE000131500F0C780A4EB05044FF0004545EA2B
:103BF000C12145EAC32341EA505143EA525304F13B
:103C00007F74994204F500344FEAC0204FEAC22283
:103C100008BF904200F09C804FEA13650FF24016F7
:103C2000765D4FEA134506FB05F7C7F1807706FB83
:103C300007F74FEAD737A7FB03687642C8F5803805
:103C4000A7FB06CE38BFA8F1010807FB08E64FF036
:103C5000000EA6FB028CE6FB03CEDCF1000CCEF1DD
:103C6000004E38BFAEF1010EA6FB0C584FF0000716
:103C70004FF00005E6FB0E87A1FB08C6A0FB07CEB0
:103C800016EB0E0645F10005E1FB076515F1E04E68
:103C90007EBFA4F580345FEA46066D4116F18007C9
:103CA00045F100054FEA17274FEA066647EA056720
:103CB000A6F1DE46B6F1805F4FEA15251FD93846DA
:103CC00024F0010C05EBC471BCF1FE6F01EB0C118B
:103CD00002D8F0BCBDE8008124425CBF01F5801E23
:103CE0009EEAC47F02D4F0BCBDE80081244238D4EF
:103CF000F0BCA1F1C041BDE8004100F016B94FEAA7
:103D0000D22242EA43524FEAD323A7FB02864FEA6C
:103D1000D02040EA415007FB03661EEA0E0F4FEA2F
:103D2000D12105FB026658BFA6EB0056B6EB005644
:103D30004FEA520E4EEAC37E18EB0E0E56EB530EB0
:103D4000BDD518EB02085E417F1C55F10005B6E7B2
:103D50004FF480154FF000074FF000064FF00008B9
:103D6000ADE7F0BC4FF0000001F1C04101F00041AF
:103D7000BDE8008111EA0C1F0CEA131500D00CE01D
:103D800013EA0C1F00F025804FF00000F0BC81EA20
:103D9000030101F00041BDE80081F0BCBDE8004135
:103DA00081EA030100F0C1B8F0BCBDE8004170B584
:103DB00000F06DF8097EFC3E00F007B881EA0301CF
:103DC0004FF0000001F00041704781EA030100F06C
:103DD000ACB8F0BCBDE800414FF00000214970478D
:103DE000FFFDFBF9F7F5F4F2F0EEEDEBE9E8E6E4C0
:103DF000E3E1E0DEDDDBDAD8D7D5D4D3D1D0CFCD47
:103E0000CCCBCAC8C7C6C5C4C2C1C0BFBEBDBCBB7F
:103E1000BAB9B8B7B6B5B4B3B2B1B0AFAEADACAB7A
:103E2000AAA9A8A8A7A6A5A4A3A3A2A1A09F9F9E54
:103E30009D9C9C9B9A999998979796959594939306
:103E4000929191908F8F8E8E8D8C8C8B8B8A89899D
:103E50008888878786858584848383828281818020
:103E60000000FF070000F87FB0FA80F310FA03F1BA
:103E70000AD0C3F11D0303F580634FEA41504FEAB6
:103E8000035202EBD12170474FF0000070470EF152
:103E9000020E2EF0030E5EF8046B364205D4012AA2
:103EA00043EB030515F5001F12D8012841EB010C67
:103EB0001CF5001F0CD80ED14FEAD17C15F5001F60
:103EC0000CEB4C0C0CF1020C08BF4CEBD37C04E067
:103ED0004FF0080C01E04FEAD37C0CEB4C0526FABE
:103EE00005F606F00706B6F1040C06D20EEB860CBA
:103EF000BDE870404CF0010C6047DFE80CF0090BA6
:103F000002024FF000414FF00000A1F5002170BD0A
:103F100019461046012851EB010418BFD4F50014CE
:103F200084BF002001F0004170BD0808A0F5001119
:103F30004FEA31017047000090EA010F48BF81F05D
:103F4000004100F16A81421A3CBF801A89184FEA89
:103F5000D0524FF07F4C1CEA410FA2EBD15318BF57
:103F60009CEA026F00F03B804FF0004C4CEA0020CE
:103F70004CEA012121FA03FC10EB0C0C1ED202F1D9
:103F8000FF325FEA1C2040EBC25038BF70471CF084
:103F90007F0F4FEA400C18BFBCF17F4F38BF70470E
:103FA000C3F12003994008BF20F00100BCF17F4F0E
:103FB00038BF7047A0F1C04000F022B94FEA3C0082
:103FC000000A40EBC25028BF1CF0FF0F4FEA400C24
:103FD000E6D018BFBCF17F4F38BF7047EAE79CEAD4
:103FE000026F05D010EA5C0F08BF00F00040704778
:103FF00010B500F0B8F800BF64FBBE3E41000B0EE8
:10400000D3F19E0208D950F400034FEA032323FAA8
:1040100002F048BF4042704710B500F0A4F800BF5E
:1040200049922480002070476FF0004282EA20000D
:104030007047000010F0004148BF4042B0FA80F3E2
:1040400010FA03F2C3F19D030BD051EAC35101EB07
:104050001220530638BF704700F1010008BF20F05E
:10406000010070474FF47F0C1CEAD0121EBF1CEAFF
:10407000D11392EA0C0F93EA0C0F00F0478090EAFC
:10408000010F48BF42F480724FF0004C4CEA002010
:104090004CEA012102EB0302A0FB0113A2F500028E
:1040A000002918BF43F001035B0028BF4FEA330328
:1040B00042EB22425FEA132C4CEBC2502EBFBCEB0A
:1040C000436FB2F57C0F70474FEA036CBCF1004FB1
:1040D00008BF20F00100B2F57C0F38BF70470BD548
:1040E00082F0FF0212F5803FC8BF704700F1C04068
:1040F000D8BF00F00040704700F5000C5FEA4C0CA0
:1041000048BF7047B0F1C04000F07AB890EA010FA4
:104110000CEAD11348BF42F48072624538BF634550
:1041200004D280EA010000F00040704710B500F0B2
:104130001AF800BF8900013E00F007B800F009B886
:104140005FEA410C5FEA1C6C08D080EA010000F0D5
:1041500057B85FEA400C5FEA1C6CF6D14FF00040A4
:10416000A0F5800070470EF1020E2EF0030E5EF8EF
:10417000044B244204D44FEA4102B2F17F4F11D8DC
:104180004FEA4003B3F17F4F0CD80ED14FEAD07CF9
:10419000B2F17F4F0CEB4C0C0CF1020C08BF4CEB56
:1041A000D17C04E04FF0080C01E04FEAD17C0CEB2D
:1041B0004C0324FA03F404F00704B4F1040C06D20F
:1041C0000EEB840CBDE810404CF0010C6047DFE8BA
:1041D0000CF0070802024FF00040A0F5800010BD6F
:1041E0000846420018BFD2F1807288BF00F000403C
:1041F00010BD10B5FFF7A0FC4FF00001016010BD2D
:10420000FF2141EAD050C0057047000090EA010F3D
:1042100048BF81F000413FF596AE421A04D882F0C3
:104220000042A0EB020011444FEAD0524FF07F4C05
:104230001CEA410FA2EBD15318BF9CEA026F4AD08F
:104240004FF0004C4CEA00204CEA012121FA03FC1B
:10425000B0EB0C0C0FD412F0FE0F36D05FEA4C001E
:104260001DD5001240EBC25038BF70471CF03F0F05
:1042700018BF70470BE0A2F101025FEA1C2040EB7F
:10428000C25038BF70471CF07F0F18BF7047C3F192
:104290002003994014BF401E20F0010070478008A1
:1042A0004FEA122308BF7047B0FA80FCA2EB0C0261
:1042B000CCF1280C60FA0CF093EA122F04BF00EB4B
:1042C000C25070474FEAC3707047130A5FEADC10B0
:1042D00008BF7047F6E79CEA026F04D010EA5C0F53
:1042E00008BF0020704710B5FFF73DFF40DFF63EE6
:1042F00081F00040704700001843000000000010EB
:10430000CC00000008210000E4430000CC000010B5
:104310006C02000024210000FF00000000000000EB
:10432000000000000000000000000000000000008D
:10433000000000000100010000000000000000007B
:10434000FFFF00000000000000000000000000006F
:10435000000000000000000000000000000000005D
:1043600000000000FFFF000000000000000000004F
:10437000000000000000000000000000000000003D
:104380000000000000000000FFFF0000000000002F
:10439000000000000000000000000000000000001D
:1043A000000000000000000000000000FFFF00000F
:1043B00000000000000000000000000000000000FD
:1043C00000000000000000000000000000000000ED
:1043D0000A000A0A000A0A000A0A000A000000008D
:0443E00000E1F505FE
:04000005000020CD0A
:00000001FF
