:020000040000FA
:10200000480300106D2100007121000073210000C1
:1020100075210000772100007921000000000000F8
:102020000000000000000000000000007B21000014
:102030007D210000000000007F21000081210000C0
:102040008321000083210000832100008321000000
:102050008321000083210000832100005D2A00000D
:1020600083210000832100008321000083210000E0
:1020700083210000832100008321000083210000D0
:1020800083210000832100005929000077290000E6
:1020900095290000B529000083210000832100005C
:1020A00083210000832100008321000083210000A0
:1020B00083210000BD230000832100008321000054
:1020C00083210000832100008321000000F002F83A
:1020D00000F03CF80AA090E8000C82448344AAF186
:1020E0000107DA4501D100F031F8AFF2090EBAE884
:1020F0000F0013F0010F18BFFB1A43F0010318473C
:102100006C1800008C180000103A24BF78C878C101
:10211000FAD8520724BF30C830C144BF04680C60ED
:10212000704700000023002400250026103A28BF35
:1021300078C1FBD8520728BF30C148BF0B60704739
:102140001FB501F090FB1FBD10B510BD00F0FBFFE7
:102150001146FFF7F5FF00F0D6FB01F019F803B4C4
:10216000FFF7F2FF03BC01F023F800000848004726
:10217000FEE7FEE7FEE7FEE7FEE7FEE7FEE7FEE737
:10218000FEE7FEE703480449024A044B704700009B
:10219000CD20000048010010480300104801001045
:1021A00020207649086000BF7448006810F0400F96
:1021B000FAD00320724908604FF000007149C1F85D
:1021C000A801714908604FF001007049086070482B
:1021D000704908604FF00100A1F1040108604FF060
:1021E000AA006D4908604FF055006649C1F88C009F
:1021F00000BF6A48006810F0806FFAD00320684979
:1022000008604FF0AA005F49C1F88C004FF05500FC
:10221000614908604FF00000624908606248634904
:1022200008604FF000005749C1F8C8015B480068DA
:10223000C0F30160032868D15448006810F003001F
:1022400006D0012823D002283FD003285CD100E02B
:1022500000BF52480068C0F30E0000F101004FEAD1
:102260004000534900FB01F04649D1F88810C1F302
:10227000074101F10101B0FBF1F141480068C0B232
:1022800000F10100B1FBF0F04A4908603CE043482E
:102290000068C0F30E0000F101004FEA400046491B
:1022A00000FB01F03749D1F88810C1F3074101F173
:1022B0000101B0FBF1F132480068C0B200F1010049
:1022C000B1FBF0F03B4908601EE034480068C0F301
:1022D0000E0000F101004FEA40004FF4FA4100FB0C
:1022E00001F02849D1F88810C1F3074101F101013B
:1022F000B0FBF1F122480068C0B200F10100B1FB6F
:10230000F0F02C49086000BF2FE02048006810F072
:10231000030006D0012810D0022819D0032823D1A9
:1023200000E000BF16480068C0B200F1010020497B
:10233000B1FBF0F01F49086016E011480068C0B218
:1023400000F101001C49B1FBF0F01A4908600BE0F4
:102350000B480068C0B200F101004FF4FA41B1FB34
:10236000F0F01449086000BF00BF0648006820F480
:10237000704040F48040034908607047A0C10F409E
:1023800004C10F4000C00F40ACC10F400CC10F4052
:102390006300050084C00F408CC00F4088C00F4010
:1023A00080C00F4008C10F40DE872804C4C00F4022
:1023B00000093D0000000010001BB7002DE9F047A8
:1023C000FF48007A40F00100FD490872FD4880682E
:1023D000FD490860FB48C068FC490860F94800698D
:1023E000FB490860F7484069FA490860F54988697F
:1023F00001F070F806460022F74B00F013FF044688
:1024000000F0DEFEF5490860EE49C86901F062F8A7
:1024100006460022F04B00F005FF044600F0D0FE17
:10242000EF490860E749086A01F054F804460022C1
:10243000E94B00F0F7FE064600F0C2FEE9490860ED
:10244000E948006842F2107191FBF0F0E74908603A
:10245000E748006842F2107191FBF0F0E54908602E
:10246000E548006842F2107191FBF0F0E349086022
:10247000E348006842F2107191FBF0F0E149086016
:10248000D1480068D9490968401ADF490860CF4837
:102490000068D8490968401ADC490860CC480068DF
:1024A000D6490968401ADA490860CA480068D5491F
:1024B0000968401AD7490860D7480068D2490968B6
:1024C0000844D5490860D5480068D04909680844DF
:1024D000D2490860D2480068CD4909680844D0490B
:1024E0000860D0480068CB4909680844CD490860B5
:1024F000C5480068CC490968401ACC490860C348FF
:102500000068CB490968401ACA490860C048006899
:10251000C9490968401AC9490860BE480068C849E5
:102520000968401AC7490860B7480068BE49086092
:10253000B6480068BE490860B5480068BE490860F2
:10254000B4480068BE490860B848006801F0ACF8BB
:102550000746A4480168384601F0BEF80546AE4873
:10256000006801F0A1F881469D480168484601F0E5
:10257000B3F80746A448006801F096F881469748EA
:102580000168484601F0A8F88046394601F00EF887
:102590000646294601F00AF8044601F069F8AA49FE
:1025A0000860A448006801F07FF807468D4801687C
:1025B000384601F091F805469848006801F074F833
:1025C000814687480168484601F086F807468F48EB
:1025D000006801F069F8814680480168484601F0CA
:1025E0007BF88046394600F0E1FF0646294600F0B8
:1025F000DDFF044601F03CF8944908608F4800680C
:1026000001F052F8074677480168384601F064F84F
:1026100005468348006801F047F881467048016824
:10262000484601F059F807467948006801F03CF83F
:1026300081466A480168484601F04EF880463946AE
:1026400000F0B4FF0646294600F0B0FF044601F052
:102650000FF87F4908607B48006801F025F80746BD
:1026600060480168384601F037F805466D48006853
:1026700001F01AF881465A480168484601F02CF8E2
:1026800007466448006801F00FF881465348016826
:10269000484601F021F88046394600F087FF06469B
:1026A000294600F083FF044600F0E2FF6949086014
:1026B0004548006864490968084467490860434818
:1026C0000068624909680844644908604048006835
:1026D0005F4909680844624908603E4800685D49EE
:1026E000096808445F4908603748006818B9002045
:1026F0005949086006E034480068534909680844AD
:10270000554908603148006818B9002053490860ED
:1027100006E02E4800684D49096808444F490860A2
:102720002B48006818B900204D49086006E0284889
:102730000068474909680844494908602548006815
:1027400018B900204749086006E02248006841495E
:1027500009680844434908601A48406810F0800F2F
:1027600004D13D48006840423B4908601548406834
:1027700010F0400F04D139480068404237490860E2
:102780001048406810F0200F04D1354800684042DE
:10279000334908600B48406810F0100F04D13148ED
:1027A000006840422F4908604FF6FF700E490860EC
:1027B0000F4908601049086011490860294853E032
:1027C00000000B40BC0000100C000010280000109E
:1027D0004400001060000010000059407800001014
:1027E0007C00001080000010080000101000001095
:1027F000240000102C0000104000001048000010C1
:102800005C00001064000010140000103000001084
:102810004C00001068000010180000103400001078
:10282000500000106C000010200000101C00001070
:102830003C00001038000010580000105400001038
:102840007400001070000010940000109C00001034
:10285000A4000010AC00001098000010A0000010B0
:10286000A8000010B000001003688C4802688C4873
:1028700001688C48006800F0CDFABDE8F08710B51B
:102880008948006842F2107191FBF0F087490860B6
:102890008748006842F2107191FBF0F085490860AA
:1028A0008548006842F2107191FBF0F0834908609E
:1028B0008348006842F2107191FBF0F08149086092
:1028C0002A2000F0A1F97948006800F09DF92B203A
:1028D00000F09AF97748006800F096F92B2000F094
:1028E00093F97648006800F08FF92B2000F08CF9FE
:1028F000642000F03DFA7348006800F085F9232059
:1029000000F082F910BDFFF74BFC00F046FA00F032
:1029100041F900F04BFB00F09FFB0A2000F0E0FBC8
:102920006948806D40F400706749886567480860B1
:102930002020086400231A461946184600F06AFA57
:1029400000F065FB00F06AFB00F06EFB00F072FB2C
:1029500001E0FFF794FFFCE710B55D48006840F028
:1029600001005C49C1F840015B4880685249086039
:1029700000F05AFB10BD10B55548006840F0020049
:102980005449C1F84001554880684949086000F041
:1029900045FB10BD10B54E48006840F004004D499D
:1029A000C1F840014FF0402080683F49086000F0C6
:1029B0002EFB10BD10B54648006840F008004549A0
:1029C000C1F84001464880683D49086000F032FB8C
:1029D00010BD444800682A283FD1424880695E28DB
:1029E0003BD14048406810F0400F05D13D48806819
:1029F00040422C49086003E03A4880682949086051
:102A00003848406810F0200F05D13648C068404271
:102A10002349086003E03348C06821490860314811
:102A2000406810F0100F05D12E48006940421B4944
:102A3000086003E02B48006918490860294840688D
:102A400010F0080F05D12748406940422649086028
:102A500003E02448406924490860704710B500F03D
:102A6000DEF804462A2C04D11E49086000201F49C4
:102A700008601E480068002804DD1A481B490968E0
:102A800040F8214019480068401C18490860084671
:102A90000068092801DB0020086010BDA8000010B4
:102AA000A000001098000010080000108400001022
:102AB0002400001088000010400000108C0000105E
:102AC0005C0000109000001000C009200802010006
:102AD00040C10F4000C00F4000000940008000408E
:102AE00000400940BC000010B000001004000010BD
:102AF00010B59948006840F0020097490860084600
:102B0000006840F0080008609448006840F00070D9
:102B10009349C1F8C4004FF08300924908734FF005
:102B200064044FF085009049087020464FEAE47134
:102B300004EB11614FEA21218A4A11714FEAE471D5
:102B400004EB11614FEA2121A4EB012111704FF038
:102B50000300114608734FF0060008724FF008009A
:102B600000F0EDF801207F49486010BD014600BF2C
:102B70007C48007D10F0200FFAD0C8B2794A10705E
:102B8000704700BF7748007D10F0010FFAD07548FC
:102B90000078704710B57048006840F480106E49A6
:102BA00008600846006840F4800008606B480068D0
:102BB00040F080706A49C1F8C4004FF083006B494F
:102BC00008734FF0290420464FEAE47104EB1161C9
:102BD0004FEA2121654A11714FEAE47104EB11615A
:102BE0004FEA2121A4EB012111704FF0030011469F
:102BF00008734FF0060008724FF0070000F09FF8CE
:102C000001205A49486010BD014600BF5748007D69
:102C100010F0200FFAD0C8B2544A1070704700BFAD
:102C20005248007D10F0010FFAD0504800787047EC
:102C30001CB503460A2093FBF0F100FB1130303045
:102C400080B2ADF806000A2093FBF0F00A2190FB59
:102C5000F1F201FB1200303080B2ADF804000A201E
:102C600093FBF0F090FBF1F090FBF1F201FB12000E
:102C7000303080B2ADF802000A2093FBF0F090FBF8
:102C8000F1F090FBF1F090FBF1F201FB120030301B
:102C900080B2ADF80000002405E03DF81400FFF715
:102CA00065FF601CC4B2042CF7DB1CBD1CB50346D9
:102CB0000A2093FBF0F100FB1130303080B2ADF808
:102CC00006000A2093FBF0F00A2190FBF1F201FBD1
:102CD0001200303080B2ADF804000A2093FBF0F00F
:102CE00090FBF1F090FBF1F201FB1200303080B26A
:102CF000ADF802000A2093FBF0F090FBF1F090FB9E
:102D0000F1F090FBF1F201FB1200303080B2ADF82F
:102D10000000002405E03DF81400FFF775FF601C7B
:102D2000C4B2042CF7DB1CBD00B5034603E013F866
:102D3000010BFFF769FF18780028F8D100BD00F0FB
:102D40001F020121914042094FF0E02303EB820270
:102D5000C2F800117047000000C00240C4C00F401C
:102D600000C00F4000C0094028C009400080094051
:102D7000002107E0401E002100E0491C41F288329A
:102D80009142FADB0028F5DC704700004FF4FC406C
:102D90001D49C86409204860704700B500201B49E0
:102DA00008601B48006940F0550019490861084651
:102DB000C06840F40810C860022013494860C86029
:102DC00001204861000288610020C86108624862F1
:102DD0000864486488640865FFF7D8FF00BD0A49A5
:102DE000C86141000322B1FBF2F1074A11624108B8
:102DF00051620321B0FBF1F111641146486488640B
:102E00007F2111657047000000800140B80000106C
:102E100000C0024030B5FF2801DDFF2004E010F1C2
:102E2000FF0F01DA6FF0FE00FF2901DDFF2104E052
:102E300011F1FF0F01DA6FF0FE01FF2A01DDFF2221
:102E400004E012F1FF0F01DA6FF0FE02FF2B01DD4B
:102E5000FF2304E013F1FF0F01DA6FF0FE0348B91E
:102E6000504CA46D44F020044E4DAC65FF244E4DF3
:102E70006C6217E000280ADD4A4CA46D44F020047F
:102E8000484DAC65C0F1FF04474D6C620AE0002874
:102E900008DA444CE46D44F02004424DEC654442B1
:102EA000414D6C6249B93F4CA46944F008043D4D62
:102EB000AC61FF243C4DEC6117E000290ADD394C80
:102EC000A46944F00804374DAC61C1F1FF04364DEC
:102ED000EC610AE0002908DA324CE46944F00804A5
:102EE000304DEC614C42304DEC614AB92D4CA46937
:102EF00044F400742B4DAC61FF242B4D2C6217E081
:102F0000002A0ADD274CA46944F40074254DAC6105
:102F1000C2F1FF04244D2C620AE0002A08DA214C99
:102F2000E46944F400741F4DEC6154421E4D2C6260
:102F30004BB91C4CA46944F480341A4DAC61FF2495
:102F4000194D2C6417E0002B0ADD164CA46944F4DB
:102F50008034144DAC61C3F1FF04134D2C640AE0BE
:102F6000002B08DA0F4CE46944F480340D4DEC6119
:102F70005C420D4D2C640C4C246D44F004040A4D4D
:102F80002C652C46246D44F010042C652C46246DD1
:102F900044F008042C652C46246D44F002042C6592
:102FA00030BD000000C009200080014024480068B6
:102FB000244940EA01002449C1F8C4004FF003004D
:102FC0004FF0402148604FF0010048604FF003008F
:102FD0001E4948604FF0010048604FF003001C4953
:102FE00048604FF0010048604FF003001949486005
:102FF0004FF0010048604FF480704FF04021C860EE
:103000001249C8601249C8601249C860704703205D
:103010004FF04021486001204860704703200B4971
:10302000486001204860704703200949486001203A
:103030004860704703200749486001204860704796
:10304000C4C00F400600C00000C00F400080004018
:10305000000009400040094010B51E48006940F0DA
:10306000AA601C4908611C48006840F00F001B4919
:10307000C1F848010846D0F84C0140F00F00C1F8F3
:103080004C014FF0120000F019F8132000F016F870
:10309000142000F013F8152000F010F80F48D0F8B5
:1030A000480140F00F000D49C1F848010846D0F82A
:1030B0004C0140F00F00C1F84C0110BD00F01F02A0
:1030C0000121914042094FF0E02303EB8202C2F854
:1030D0000011704700C0024048C10F4000C00F40BF
:1030E0001349096841F48031124AC2F8C4101249E8
:1030F000097A41F00B01104A11721146097A21F048
:10310000040111724FF0000151600C49116000BFC1
:103110004FF01D014FF0010202FA01F24FEA511186
:103120004FF0E02303EB8101C1F8002100BF70479D
:10313000C4C00F4000C00F4000000B4040420F00D1
:10314000704770477047754600F028F8AE46050096
:103150006946534620F00700854618B020B5FFF7B2
:1031600011F8BDE820404FF000064FF000074FF087
:1031700000084FF0000B21F00701AC46ACE8C00995
:10318000ACE8C009ACE8C009ACE8C0098D4670479E
:103190000446AFF300802046FEF7E1FF0048704789
:1031A000E400001001487047704700BFE8000010BD
:1031B00001491820ABBEFEE7260002007047000060
:1031C00021F00042A2F16052B2F5801F01F00043ED
:1031D00028BFD2F17F6C0BD95FEA001C43EAC20220
:1031E00042EB507018BF704728BF20F001007047B5
:1031F000B2F5801FBCBF184670474FEA410C1CF562
:10320000001F02D2084600F035BB70B500F079F916
:1032100000000089FFF7F6BF4FF00040A0F58000E6
:10322000704700002DE9C04130B4DFF8A0C23CEA8D
:10323000111418BF3CEA131400F0EC8081EA030576
:103240001CEA111444EAD57418BF1CEA131500F0E7
:10325000C780A4EB05044FF0004545EAC12145EACB
:10326000C32341EA505143EA525304F17F74994217
:1032700004F500344FEAC0204FEAC22208BF904252
:1032800000F09C804FEA13650FF24016765D4FEA1E
:10329000134506FB05F7C7F1807706FB07F74FEAF2
:1032A000D737A7FB03687642C8F58038A7FB06CE60
:1032B00038BFA8F1010807FB08E64FF0000EA6FB97
:1032C000028CE6FB03CEDCF1000CCEF1004E38BFE1
:1032D000AEF1010EA6FB0C584FF000074FF00005B1
:1032E000E6FB0E87A1FB08C6A0FB07CE16EB0E0679
:1032F00045F10005E1FB076515F1E04E7EBFA4F541
:1033000080345FEA46066D4116F1800745F10005FD
:103310004FEA17274FEA066647EA0567A6F1DE4639
:10332000B6F1805F4FEA15251FD9384624F0010C0D
:1033300005EBC471BCF1FE6F01EB0C1102D8F0BCBF
:10334000BDE8008124425CBF01F5801E9EEAC47F77
:1033500002D4F0BCBDE80081244238D4F0BCA1F115
:10336000C041BDE8004100F01AB94FEAD22242EA5A
:1033700043524FEAD323A7FB02864FEAD02040EA0C
:10338000415007FB03661EEA0E0F4FEAD12105FBF1
:10339000026658BFA6EB0056B6EB00564FEA520E37
:1033A0004EEAC37E18EB0E0E56EB530EBDD518EB4E
:1033B00002085E417F1C55F10005B6E74FF4801509
:1033C0004FF000074FF000064FF00008ADE7F0BCEB
:1033D0004FF0000001F1C04101F00041BDE8008163
:1033E00011EA0C1F0CEA131500D00CE013EA0C1FB5
:1033F00000F025804FF00000F0BC81EA030101F0ED
:103400000041BDE80081F0BCBDE8004181EA030154
:1034100000F0C5B8F0BCBDE8004170B500F071F82F
:10342000097EFC3E00F007B881EA03014FF000007E
:1034300001F00041704781EA030100F0B0B8F0BC30
:10344000BDE800414FF0000021497047FFFDFBF946
:10345000F7F5F4F2F0EEEDEBE9E8E6E4E3E1E0DEC7
:10346000DDDBDAD8D7D5D4D3D1D0CFCDCCCBCAC839
:10347000C7C6C5C4C2C1C0BFBEBDBCBBBAB9B8B760
:10348000B6B5B4B3B2B1B0AFAEADACABAAA9A8A853
:10349000A7A6A5A4A3A3A2A1A09F9F9E9D9C9C9B21
:1034A0009A999998979796959594939392919190CC
:1034B0008F8F8E8E8D8C8C8B8B8A8989888887875D
:1034C0008685858484838382828181800000FF07D2
:1034D0000000F87F10F0004248BF4042B0FA80F38D
:1034E00010FA03F10AD0C3F11D0303F580634FEA1C
:1034F000415002EB035202EBD12170474FF0000024
:1035000070470EF1020E2EF0030E5EF8046B364289
:1035100005D4012A43EB030515F5001F12D8012835
:1035200041EB010C1CF5001F0CD80ED14FEAD17CE9
:1035300015F5001F0CEB4C0C0CF1020C08BF4CEB0A
:10354000D37C04E04FF0080C01E04FEAD37C0CEB95
:103550004C0526FA05F606F00706B6F1040C06D26D
:103560000EEB860CBDE870404CF0010C6047DFE8C4
:103570000CF0090B02024FF000414FF00000A1F5E2
:10358000002170BD19461046012851EB010418BFF7
:10359000D4F5001484BF002001F0004170BD08087C
:1035A000A0F500114FEA31017047000090EA010FC9
:1035B00048BF81F0004100F16A81421A3CBF801A85
:1035C00089184FEAD0524FF07F4C1CEA410FA2EB12
:1035D000D15318BF9CEA026F00F03B804FF0004CC3
:1035E0004CEA00204CEA012121FA03FC10EB0C0C00
:1035F0001ED202F1FF325FEA1C2040EBC25038BFFE
:1036000070471CF07F0F4FEA400C18BFBCF17F4F92
:1036100038BF7047C3F12003994008BF20F0010074
:10362000BCF17F4F38BF7047A0F1C04000F022B915
:103630004FEA3C00000A40EBC25028BF1CF0FF0FCD
:103640004FEA400CE6D018BFBCF17F4F38BF70473F
:10365000EAE79CEA026F05D010EA5C0F08BF00F0B1
:103660000040704710B500F0B8F800BF64FBBE3EE4
:1036700041000B0ED3F19E0208D950F400034FEA2B
:10368000032323FA02F048BF4042704710B500F010
:10369000A4F800BF49922480002070476FF00042D8
:1036A00082EA20007047000010F0004148BF40420D
:1036B000B0FA80F310FA03F2C3F19D030BD051EA84
:1036C000C35101EB1220530638BF704700F10100CF
:1036D00008BF20F0010070474FF47F0C1CEAD012A5
:1036E0001EBF1CEAD11392EA0C0F93EA0C0F00F0F4
:1036F000478090EA010F48BF42F480724FF0004CBF
:103700004CEA00204CEA012102EB0302A0FB01136A
:10371000A2F50002002918BF43F001035B0028BF97
:103720004FEA330342EB22425FEA132C4CEBC250C8
:103730002EBFBCEB436FB2F57C0F70474FEA036CB2
:10374000BCF1004F08BF20F00100B2F57C0F38BF7C
:1037500070470BD582F0FF0212F5803FC8BF70475B
:1037600000F1C040D8BF00F00040704700F5000CE9
:103770005FEA4C0C48BF7047B0F1C04000F07AB827
:1037800090EA010F0CEAD11348BF42F480726245FF
:1037900038BF634504D280EA010000F00040704762
:1037A00010B500F01AF800BF8900013E00F007B81C
:1037B00000F009B85FEA410C5FEA1C6C08D080EAAF
:1037C000010000F057B85FEA400C5FEA1C6CF6D1CC
:1037D0004FF00040A0F5800070470EF1020E2EF071
:1037E000030E5EF8044B244204D44FEA4102B2F1C6
:1037F0007F4F11D84FEA4003B3F17F4F0CD80ED161
:103800004FEAD07CB2F17F4F0CEB4C0C0CF1020C68
:1038100008BF4CEBD17C04E04FF0080C01E04FEA0C
:10382000D17C0CEB4C0324FA03F404F00704B4F14C
:10383000040C06D20EEB840CBDE810404CF0010CD9
:103840006047DFE80CF0070802024FF00040A0F5E7
:10385000800010BD0846420018BFD2F1807288BFB8
:1038600000F0004010BD10B5FFF79CFC4FF00001C8
:10387000016010BDFF2141EAD050C0057047000033
:1038800090EA010F48BF81F000413FF596AE421A21
:1038900004D882F00042A0EB020011444FEAD0525B
:1038A0004FF07F4C1CEA410FA2EBD15318BF9CEAAA
:1038B000026F4AD04FF0004C4CEA00204CEA012144
:1038C00021FA03FCB0EB0C0C0FD412F0FE0F36D033
:1038D0005FEA4C001DD5001240EBC25038BF704764
:1038E0001CF03F0F18BF70470BE0A2F101025FEA26
:1038F0001C2040EBC25038BF70471CF07F0F18BF30
:103900007047C3F12003994014BF401E20F001000E
:10391000704780084FEA122308BF7047B0FA80FC56
:10392000A2EB0C02CCF1280C60FA0CF093EA122FF7
:1039300004BF00EBC25070474FEAC3707047130AD0
:103940005FEADC1008BF7047F6E79CEA026F04D01C
:1039500010EA5C0F08BF0020704710B5FFF73DFF6D
:1039600040DFF63E81F00040704700008C390000D7
:1039700000000010BC00000008210000483A0000D0
:10398000BC0000108C0200002421000000093D0052
:1039900000000000FFFF0000000000000000000029
:1039A0000000000000000000000000000000000017
:1039B000FFFF000000000000000000000000000009
:1039C000000000000000000000000000FFFF0000F9
:1039D00000000000000000000000000000000000E7
:1039E0000000000000000000FFFF000000000000D9
:1039F00000000000000000000000000000000000C7
:103A000000000000000000000000000000000000B6
:103A100000000000000000000000000000000000A6
:103A20000000000000000000000000000000000096
:103A30000000000000000000000000000000000086
:083A400000000000000000007E
:04000005000020CD0A
:00000001FF
